:020000040800F2
:10000000D80A00203D020008B51900089D18000814
:10001000B1190008710700089D1C000800000000CD
:10002000000000000000000000000000691A000845
:100030007507000800000000E51900089D1A000877
:10004000570200085702000857020008570200082C
:10005000570200085702000857020008570200081C
:10006000570200085702000857020008570200080C
:1000700057020008570200085702000857020008FC
:10008000570200085702000857020008000000004D
:1000900000000000000000000000000057020008FF
:1000A00057020008570200085702000857020008CC
:1000B00057020008570200085702000857020008BC
:1000C00057020008570200085702000857020008AC
:1000D00057020008570200085702000800000000FD
:1000E00057020008570200085702000800000000ED
:1000F000000000000000000000000000570200089F
:1001000000000000570200085702000857020008CC
:1001100000000000000000000000000000000000DF
:10012000570200085702000857020008570200084B
:10013000570200080000000000000000000000005E
:10014000000000000000000000000000570200084E
:10015000570200085702000857020008570200081B
:1001600057020008570200080000000000000000CD
:10017000000000000000000000000000000000007F
:10018000000000005702000800000000000000000E
:100190005702000800F002F800F041F80AA090E8C9
:1001A000000C82448344AAF10107DA4501D100F032
:1001B00036F8AFF2090EBAE80F0013F0010F18BFBE
:1001C000FB1A43F00103184700240000202400001C
:1001D000103A24BF78C878C1FAD8520724BF30C873
:1001E00030C144BF04680C60704700000023002445
:1001F00000250026103A28BF78C1FBD8520728BF37
:1002000030C148BF0B607047752900F0F7800020AF
:1002100070471FB502F0BCF91FBD10B510BD00F04E
:10022000E8F91146FFF7F5FF01F064FD00F006FA6A
:1002300003B4FFF7F2FF03BC00F00EFA0948804751
:1002400009480047FEE7FEE7FEE7FEE7FEE7FEE7B8
:10025000FEE7FEE7FEE7FEE704480549054A064BD0
:1002600070470000311B000895010008D8040020E9
:10027000D80A0020D8060020D806002053EA020C35
:1002800000F069802DE9F04B4FF00006002B1FBFF6
:10029000B3FA83F503FA05F424FA05F65E4012BFBB
:1002A0001643B2FA82F502FA05F4C5F120051EBF25
:1002B00022FA05FC44EA0C04203556EA044C4FEAC5
:1002C000144418BF641C4FF000084FF0000990421E
:1002D00071EB030C39D3002919BFB1FA81F701FA88
:1002E00007F6B0FA80F700FA07F6C7F120071EBF3D
:1002F00020FA07FC46EA0C062037B6FBF4FCA7EB15
:100300000507103F07F01F0BCBF120062CFA06F66D
:100310000CFA0BFB44BFB3460026202FA4BF5E4659
:100320004FF0000B5BEA060C08BF4FF0010B19EB16
:100330000B0948EB0608ABFB027C06FB02CC0BFB6F
:1003400003CCC01B71EB0C01C1E70B4602464146D2
:100350004846BDE8F08B13B5084318BF4FF0FF3097
:100360000146AFF30080BDE81C4070470FB41CB5D8
:10037000074B06AA7B4469460090059800F021F9D6
:100380000020694600F030F91CBC5DF814FB000049
:10039000710200002DE9F0410E4604460020206263
:1003A0002046E168884730B3252805D0D4E90121EB
:1003B0009047206A401CF2E7E16820460027884702
:1003C000050018D0A5F14100192802D820354FF4B6
:1003D00000673246294620462760FFF715FF40B1E7
:1003E000012804D0F61D26F007060836D8E7361D8A
:1003F000D6E72846DAE7206ABDE8F0812DE9F0412A
:100400000646002410687529314616A510D0AFF3B2
:100410000080002802DA404213A507E031688A070D
:1004200001D512A502E0490704D511A5012401E078
:10043000AFF3008000210A2206F1240709E0B0FB97
:10044000F2FCB0FBF2F302FB1C003030785418468B
:10045000491C0028F3D123462A463046BDE8F04126
:1004600000F051B8000000002D0000002B0000003B
:100470002000000010B5431C02E010F8011B71B110
:100480008107FAD14FF0013202C88C1A8C4314EA6A
:10049000C211F9D0C01A0A0603D0C01E10BDC01A7E
:1004A00010BD0A0401D0801E10BD0902FCD0401E00
:1004B00010BD4FF0000200B5134694469646203911
:1004C00022BFA0E80C50A0E80C50B1F12001BFF40D
:1004D000F7AF090728BFA0E80C5048BF0CC05DF873
:1004E00004EB890028BF40F8042B08BF704748BFC1
:1004F00020F8022B11F0804F18BF00F8012B704735
:100500007047704770472DE9F0470D46994692466F
:10051000044600F124080168880604D5E06921F04A
:100520001001216000E00120A84201DD471B00E02E
:100530000027A1697A1902EB0900081AA061207846
:10054000C00602D42046AFF30080002608E0D4E9BC
:1005500001211AF806009047206A401C761C206290
:100560004E45F4DB2078C0060AD52046AFF3008064
:1005700006E0D4E9012130209047206A401C206227
:10058000381EA7F10107F4DC07E0D4E9012118F8CF
:1005900005009047206A401C2062281EA5F1010535
:1005A000F3DC2046AFF300802078000602D502205D
:1005B000BDE8F0870120FBE701694A1C0261087869
:1005C000704700B58FB0CDE9013100210591054993
:1005D0007944CDE9031011466846FFF7DBFE0FB002
:1005E00000BD0000E5FFFFFF0A6802F8010B0A608A
:1005F0007047754600F02CF8AE4605006946534634
:1006000020F00700854618B020B5FFF725FEBDE8AD
:1006100020404FF000064FF000074FF000084FF069
:10062000000BAC46ACE8C009ACE8C009ACE8C009B6
:10063000ACE8C00921F007018D46704710B50446AB
:10064000AFF300802046BDE81040FFF7F1BD000089
:10065000004870475000002001491820ABBEFEE75B
:10066000260002007047000010B542F20432C4F2C6
:100670000102116821F440311160D2F800C090E805
:100680000A4043EA0C03C46813604A6822F480728B
:100690004A6002694B6843EA02224A604A6822F0D3
:1006A00040724A604A6842EA0E024A608A6822F44E
:1006B00000628A608A6822438A60826A8B680124A9
:1006C00023F070638B608B68C0F60074A24202D185
:1006D00023F0405208E01A438A608A6822F04052B0
:1006E0008A60C26A8B681A438A608A6822F00202B2
:1006F0008A608A68037E90F8204042EA43028A605A
:100700004A6884B142F400624A604A684EF20003CB
:1007100022F460424A60426ACFF6FF734C6803EBF2
:100720004232224301E022F400624A60CA6A40F287
:10073000000C22F47002CA62C3694269CFF6F07CF1
:10074000CC6A0CEB03532343CB628B6823F4007316
:100750008B6090F830008B6843EA4020886088689E
:1007600020F480608860886840EA8220886010BD3C
:10077000FEE7000070470000EFF3108072B600BF84
:10078000FEE70000000000002DE9F04391B09FED6E
:10079000620B00F059F99FED620B0D9000F054F9D7
:1007A0009FED610B0E9000F04FF99FED610B0F90E4
:1007B00000F04AF99FED600B109000F045F99FEDB5
:1007C000600B099000F040F99FED5F0B0A9000F07C
:1007D0003BF99FED5F0B0B9000F036F90C904FF05A
:1007E000FF36402000210DAA52F821309842BCBFAC
:1007F0000E46184601310429F6D14FF0FF3750203C
:10080000002109AA52F821309842BCBF0F46184671
:1008100001310429F6D116F1010918BF17F10108B9
:1008200003D165A001F0FAF86AE09FED4B0B00F0F0
:100830000BF99FED4B0B059000F006F99FED4A0B6D
:10084000069000F001F99FED4A0B079000F0FCF8CC
:100850009FED490B089000F0F7F89FED490B0190D0
:1008600000F0F2F89FED480B029000F0EDF89FEDDC
:10087000480B039000F0E8F804904FF0FF3040215F
:10088000002205AB53F82240A142BCBF10462146CE
:100890000132042AF6D14FF0FF315022002301AC7F
:1008A00054F82350AA42BCBF19462A460133042BF0
:1008B000F6D1864208BF8F421FD040F20400C2F238
:1008C000000000EB061050F8270040F21441C4F27B
:1008D0000201086030A001F0A1F8484601F084F858
:1008E00042F2C250C0F6000001F098F82CA001F0CE
:1008F00095F8404601F078F802E02BA001F08EF860
:1009000042F2C250C0F6000001F088F811B0BDE814
:10091000F08300BF00BF00BFF47182FA7CAEFB3FE2
:1009200018439574A7C1FA3FA6B66BC6EA9EF93F75
:1009300044BEAC5B0847F83FE34FC6B47199F33F40
:10094000A614985A4C17F13FA2ADBAB8553FEC3FE8
:1009500065EF7F900950E53FFB1F225FA9C8EF3F7D
:10096000FC7F3433107DE93F0FBFA82C900DE23F90
:1009700072D6E0B45159D33F87807E8349F7DFBFF9
:100980007D0018A5B77CEBBFC72726515688F3BF5B
:10099000255D41A115E7F8BF526F773A20000000AE
:1009A000436F6C3A200000005365636F6E6420480B
:1009B00061726D6F6E792E00556E64657220546899
:1009C00065204D696E2E00002DE9F04F81B09FED3E
:1009D000180B40F2401059EC108B9FED170BC2F230
:1009E00000005BEC10AB9FED160BA0F10807722620
:1009F00055EC104B01F022F801F0CBFB42464B4680
:100A000001F096F952465B4601F0D6FB22462B4692
:100A100001F036FA41EC100B013E87ED020B07F1B5
:100A20000807E7D101B0BDE8F08F00BF00BF00BFED
:100A30000000000000E495C0000000000000144029
:100A40000000000000D073402DE9F04F81B02DED83
:100A5000048B9FED2D1B40F24010C2F20000B0EE5F
:100A6000418AA0F10807722658EC109BF0EE618ACB
:100A70005AEC11BBB0EE419A584651464A4643469D
:100A8000F0EE619A01F098FB53EC182B01F092FC08
:100A900097ED020B083753EC102B01F049F941ECAC
:100AA000110BB0EE498A013EF0EE698AE0D10246B0
:100AB0000B4604460D4601F07FFB06460F4658469E
:100AC00051465A46534601F077FB32463B4601F009
:100AD0002FF906460F46204629464A46434601F06E
:100AE0006BFB02460B465846514601F065FB024639
:100AF0000B463046394601F05DFC01F01BFBBDECB6
:100B0000048B01B0BDE8F08F000000000000000081
:100B100070B581B00022009290F83C20012A01D1EA
:100B2000022156E00E6801221FFA86FC80F83C2064
:100B30004FEA4C0212FA86F302680A2E32BF1032D4
:100B40001E3B0C324FF0070E15680EFA03F4A54356
:100B500015608D68146805FA03F323431360496830
:100B6000062906D8026801EB8101053902F1340338
:100B70000AE00C2901EB8101026887BF413902F1CB
:100B80002C03233902F130031F221C688A4024EA17
:100B900002021A601A680CFA01F1114342F2043E93
:100BA0001960C4F2010E0168122EAEF5417208BF41
:100BB000914205D1DEF8003043F48003CEF80030D6
:100BC00026F00103102B08BF914205D0002180F8C8
:100BD0003C10084601B070BDDEF80010102E41F444
:100BE0000001CEF80010F1D140F20001C2F2000184
:100BF00009684DF68362C4F21B32A1FB0212910C0C
:100C000001EB8101490000BF009100990029DDD06E
:100C100000990139F8E700000068C06C70470000D7
:100C2000B0B510B30446006C30B9204600F020F88F
:100C30000020606484F83C00206C0125C0060FD4BD
:100C4000206C41F202118843023020642046FFF7F5
:100C50000BFD00206064206C65F30100002520641A
:100C6000002084F83C002846B0BD0120B0BD000043
:100C700080B586B042F200010068C4F20101002292
:100C800088420592CDE903220292019201D006B07A
:100C900080BD43F630000092C4F20200436943F481
:100CA00080734361436903F480730093009B009257
:100CB000036843F001030360006800F00100009046
:100CC0000098012001900320CDE9020201F5604067
:100CD00001A900F001F906B080BD0000F0B581B0B7
:100CE000044600680D468268520544BF80685FEA8A
:100CF000C0502BD400F0C4F921680A68920715D4BB
:100D000006466F1C08E000BF20680068800727D5F2
:100D100021680868800709D4002FF9D0002DF3D08E
:100D200000F0AEF9801BA842EED8F1E76FF0120098
:100D30000860206C40F400702064886810F0405F08
:100D400001D1207EB0B1002001B0F0BD206C40F098
:100D500020002064002084F83C00012001B0F0BD98
:100D6000206C40F004002064002084F83C00032044
:100D700001B0F0BDC86A10F4700F02D08868400559
:100D8000E1D4206C20F480702064206CC004DAD49C
:100D9000206C40F001002064D5E7000081B0002104
:100DA000009190F83C10012902BF022001B0704769
:100DB0000122016880F83C208A68D20718D18A682D
:100DC0004DF6836342F001028A6040F20002C2F2F3
:100DD00000021268C4F21B33A2FB03239A0C02EB3D
:100DE000420200BF0092009A12B1009A013AF9E75C
:100DF0008B68026CDB0707D142F010010164416C83
:100E000041F00101416434E040F201739A4302F57C
:100E1000807202644A68520504D5026C012363F3B0
:100E20000D320264026C4FF0000CD2044FF000024D
:100E300044BF426C22F0060242F20003426480F892
:100E40003CC06FF02200C4F201030860D3F8040331
:100E5000C00606D099420CD1986810F0405F08D1C6
:100E600003E0886810F0405F03D1886840F080405C
:100E70008860002001B0704790F83C10012904BF41
:100E8000022070470121026880F83C10916821F02F
:100E9000010191609168C90705D1016C41F201120D
:100EA000914301310164002180F83C1008467047ED
:100EB000B0B5044600F0E4F8054640F24400C2F242
:100EC00000000078611C18BF044400BF00F0D8F88F
:100ED000401BA042FAD3B0BD2DE9F04F83B000F122
:100EE0003E4202F1FF724FEAB22241F20007019244
:100EF000C4F2020707224FF0010E00254FF0000A4E
:100F00004FF00008B84208BF042200920AE000BF78
:100F100008F101080AF1040AB8F1100F05F1020501
:100F200000F0A4800C680EFA08FB14EA0B09EFD05D
:100F30004C6804F0030CACF1010EBEF1010F11D8A6
:100F40000322876802FA05F6CA68B743AA403A4303
:100F500082604268C4F3001722EA0B0207FA08F71E
:100F60003A434260BCF1030F1CD0C26803238E6871
:100F700003FA05F7BA4306FA05F73A43BCF1020F44
:100F8000C2600FD16FF0030202EA580202440AF075
:100F90001C060F23176A03FA06F40B69A743B34034
:100FA0003B431362026803234F68AB409A4307F048
:100FB0000303AB401A4317F4403F4FF0010E0260A9
:100FC000A6D0002243F644030292C4F202031A6838
:100FD00043F6004442F480421A601A68C4F20104E5
:100FE00002F480420292029A28F003024FF6084B64
:100FF0002244CFF6FF7B52F80B300AF00C070F2685
:10100000BE4023EA060C019B009E042B38BF1E46FF
:1010100006FA07F747EA0C0342F80B30A2684B6860
:1010200042EA090743F60C4CDE0258BF22EA0907E0
:10103000A760C4F2010CDCF800209E0242EA090716
:1010400058BF22EA0907CCF8007062689E0342EAA2
:10105000090758BF22EA090767602268DB0342EAF2
:10106000090358BF22EA0903236051E703B0BDE832
:10107000F08F0000002A08BF09048161704700005A
:1010800040F2D040C2F200000068704740F24400D5
:1010900040F2D041C2F20000C2F2000100780A68BA
:1010A000104408607047000080B543F60040C4F269
:1010B0000200016841F400710160016841F480613F
:1010C0000160016841F480710160032000F05CF868
:1010D0000F2000F005F800F02BF8002080BD000084
:1010E000B0B540F24402C2F2000240F200011278B0
:1010F000C2F200014FF47A730968B3FBF2F20446BE
:10110000B1FBF2F1084600F0F5FA0F2C4FF00105A3
:101110000CD858B94FF0FF3021460022002500F0CE
:1011200023F840F24800C2F2000004602846B0BD37
:1011300082B0002043F640010190C4F202014A68E7
:1011400042F480424A604A6802F480420192019A65
:101150000090086840F080500860086800F08050F7
:101160000090009802B0704770B514460D460646D0
:1011700000F096FD2946224600F01EFC014630464E
:1011800000F096FD70BD000080B500F0A3FD80BDAD
:101190002DE9F041002800F08B8043F60808C4F2E6
:1011A00002080446D8F8F8030D4600F0070088420C
:1011B00007D288F8F853D8F8F80300F00700A842DF
:1011C00076D12068810717D5410705D5D8F80010DA
:1011D00041F4E051C8F80010010705D5D8F8001017
:1011E00041F46041C8F80010D8F80010A26821F05E
:1011F000F0011143C8F80010C0073FD1D8F8F80338
:1012000000F00700A84207D988F8F853D8F8F80387
:1012100000F00700A8424BD12068410707D5D8F855
:101220000010E26821F4E0511143C8F800100007F3
:1012300008D5D8F80000216920F4604040EAC100D8
:10124000C8F8000000F07EF8D8F8001042F2AA5268
:10125000C1F30311C0F60002515C40F2000220FA13
:1012600001F140F24800C2F200000068C2F2000240
:101270001160FFF735FF0020BDE8F0816068811E36
:10128000022907D258F8081C89015CBF0120BDE87B
:10129000F08110E0012807D158F8081C89035CBFD1
:1012A0000120BDE8F08106E058F8081C890702D447
:1012B0000120BDE8F081D8F8001021F003010843B7
:1012C000C8F80000FFF7DCFE064641F2883700BF91
:1012D000D8F80000616800F00C00B0EB810F8DD0F1
:1012E000FFF7CEFE801BB842F2D90320BDE8F081A3
:1012F00040F20000C2F200000068704780B5FFF7BE
:10130000F7FF43F60801C4F20201096842F2BA523B
:10131000C1F38221C0F60002515CC84080BD0000CC
:1013200080B5FFF7E5FF43F60801C4F20201096842
:1013300042F2BA52C1F34231C0F60002515CC840D9
:1013400080BD000010B543F60404C4F202046068D6
:1013500000F00C0008280AD0042819BF42F200400F
:10136000C0F2F40047F64000C0F27D1010BD2068C6
:1013700021682368490247F64001C0F27D1100F060
:101380003F02C3F388105CBF42F20041C0F2F40197
:10139000A1FB00010023FEF771FF21680222C1F3C7
:1013A000014102EB4101B0FBF1F010BD2DE9F0412C
:1013B00082B0002800F0A2800446007843F60006C0
:1013C000C007C4F2020643D0B06800F00C00042845
:1013D00005D1306880033BD56068C8BB8EE0B0683B
:1013E00000F00C00082802D170684002F1D4656852
:1013F000B5F5A02F0AD0B5F5803F0BD0306820F4AA
:1014000080303060306820F4802006E0306840F49E
:1014100080203060306840F480303060FFF730FE6C
:10142000002D054611D000BF3068800310D4FFF7AF
:1014300027FE401B6428F7D922E100BFFFF720FEFA
:10144000401B64284FF0030055D830688003F5D462
:10145000207880071AD5B06810F00C0F09D0B0685A
:1014600000F00C00082840F08A807068400200F10B
:1014700086803068800702D5E06801283ED1306858
:10148000216920F0F80040EAC100306020780007B0
:1014900038D4207840074CD4A5695DB3B06800F01B
:1014A0000C00082840F09E80012D27D07068E1696B
:1014B00000F480028A4221D1216A00F03F028A4270
:1014C0001CD147F6C071626A0140B1EB821F15D191
:1014D000A26A0023CFF6FF7303EBC23200F440315F
:1014E0006FF30F02914209D1E16A00F07060B0EB36
:1014F000016F03D1002002B0BDE8F081012002B0ED
:10150000BDE8F0816069002840F20000C4F2472085
:1015100057D00121C0F8801EFFF7B2FD054600BF7D
:10152000706F8007B5D4FFF7ABFD401B0228F7D9D9
:10153000A6E0306C10F080580AD100200190306C89
:1015400040F080503064306C00F080500190019881
:1015500047F20007C4F200073868C00524D4386891
:1015600040F480703860FFF78BFD05463868C00591
:101570001AD4FFF785FD401B0228F7D980E0E06808
:10158000002851D00020C4F2472001210160FFF75C
:1015900077FD0546306880073FF571AFFFF770FDB6
:1015A000401B0228F6D96BE0A568052D50D0012D0F
:1015B00052D0306F20F001003067306F20F004000F
:1015C0004DE00021C0F8801EFFF75AFD054600BF20
:1015D000706F80077FF55DAFFFF752FD401B02285B
:1015E000F6D94DE00027C4F2472700203866FFF700
:1015F00047FD022D05460BD13068800158D5FFF715
:101600003FFD401B02284FF00300F5D973E700BFF0
:10161000306880017FF56EAFFFF732FD401B022876
:101620004FF00300F4D966E70020C4F24720002100
:101630000160FFF725FD0546306880077FF526AF7E
:10164000FFF71EFD401B02284FF00300F4D952E7BC
:10165000306F40F004003067306F40F001003067B9
:10166000FFF70EFD002D054641F2883714D000BF6C
:10167000306F800713D4FFF703FD401BB842F7D942
:10168000032002B0BDE8F081FFF7FAFC401BB8422E
:101690004FF003003FF62FAF306F8007F4D4B8F15E
:1016A000000F7FF4F9AE306C20F080503064F3E628
:1016B00004F11C052FCD08430021CFF6FF7140EA4D
:1016C000821001EBC3316FF30F0140EA056008435C
:1016D000706001203866FFF7D3FC04463068800153
:1016E0003FF508AFFFF7CCFC001B02284FF00300CA
:1016F000F4D900E780B500F0B9F980BD002804BF37
:101700000120704710B5044690F83D0028B900202C
:1017100084F83C00204600F021F8242084F83D00A5
:101720002068C16821F40051C160204600F00AFA27
:101730002068016921F490410161416921F02A0189
:101740004161C16841F40051C16000202021206442
:1017500084F83D1084F83E1010BD000080B586B0BE
:1017600044F200410068C4F2000100228842059260
:10177000CDE903220292019201D006B080BD43F66A
:1017800030000092C4F20200036943F400330361A5
:10179000036903F400330093009B0092036843F055
:1017A00001030360006800F00100009000980C2025
:1017B00001900220CDE90202032004900720059049
:1017C00001F5DE3001A9FFF787FB06B080BD000000
:1017D0002DE9F04381B0044690F83D0020280BD15C
:1017E0000E4600294FF0010055D01746002A52D06E
:1017F00094F83C00012803D1022001B0BDE8F08339
:10180000012084F83C004FF0000921201D46C4F857
:10181000409084F83D00FFF733FCA784E784A1687B
:101820000746B1F5805F07D1206900281CBF30460C
:101830004E46B046064601E04FF0000884F83C9062
:1018400007E000BF16F8010B21684860E08C013802
:10185000E084E08C80B1204680213A462B4600F09F
:10186000DFF980B9002EEDD138F8020B21686FF353
:101870005F2048600026E9E7204640213A462B4693
:1018800000F0CEF918B1032001B0BDE8F0832020AC
:1018900084F83D00002001B0BDE8F083FEE70000C1
:1018A000B0B584B040F2B00042F200010122002441
:1018B000C2F20000C4F201010125C0F60072CDE9B8
:1018C0000244CDE90044057680F82040C0E90A24AE
:1018D000C56180F83040C0E90014C0E90244C0E9A5
:1018E0000455FFF79DF970B90720029040F2B0004F
:1018F000C2F200006946CDE90045FFF709F900286A
:1019000004BF04B0B0BDFEF737FF000070B586B06D
:10191000002543F630000595CDE90355CDE9015585
:101920000095C4F20200016840F2004441F0010158
:1019300001600168C4F2020401F001010091009904
:1019400000950168002241F00201016000687F21DA
:1019500000F002000090009820467F26FFF78AFBE7
:101960000120CDE9020501A9204601960495FFF763
:10197000B3FA06B070BD000080B540F2F80044F242
:101980000041C2F20000C4F2000100234FF0080C35
:101990004FF4E13280E80E00C0E90333C0E905C32B
:1019A000C361FFF7ABFE002808BF80BDFEF7E4FE71
:1019B000FEE70000FEE7000000F0070080F00703EC
:1019C000042B28BF04234FF0FF3C03380CFA03F329
:1019D00038BF0020994381400CFA00F022EA000051
:1019E000084370477047000010B584B00DF106043D
:1019F000024609A12046FEF7B9FC2046FEF73AFD53
:101A000082B240F2F800C2F2000021464FF0FF33EC
:101A1000FFF7DEFE04B010BD2575000010B50446CA
:101A2000FEF728FD82B240F2F800C2F20000214623
:101A30004FF0FF33FFF7CCFE10BD0000B0B540F211
:101A4000B004C2F200042046FFF7A8F920464FF088
:101A5000FF31FFF743F92046FFF7DEF80546204641
:101A6000FFF70AFA2846B0BD70470000B0B501384C
:101A70000024B4EB106F1CBF0120B0BD4EF2100566
:101A8000CEF2000568604FF0FF300F2100F010F932
:101A90000720AC6028602046B0BD000080B5FFF78D
:101AA000F5FA80BDB0B592B006AC20463021FEF705
:101AB00000FD002543F640000595CDE90355CDE92D
:101AC00001550095C4F202000168022241F08051E4
:101AD0000160006800F080500090009847F200001C
:101AE0000095C4F20000016862F38F310160006864
:101AF00000F44040009000980120099010200A90C6
:101B0000204606920C95FFF751FC78B90F20CDE9DD
:101B100001054FF4A050059001A80021CDE903551F
:101B2000FFF736FB002804BF12B0B0BDFEF724FE5D
:101B30004EF68850CEF20000016841F47001016059
:101B40007047000010B504460068D4E902C223695A
:101B5000016921F4405111430161626943EA0C01BA
:101B6000E3691143C268194349F20C639A43114374
:101B7000C1604169A26921F4407141F200431143FF
:101B800040F48062C4F201039A42416102D1FFF73E
:101B9000C7FB01E0FFF7B2FBE16963681922B1F509
:101BA000004FA0FB02011CD15A00DB0FFEF766FBC1
:101BB00048F21F51C5F2EB11A0FB01235A096FF047
:101BC000630302FB0300322303EBC000A0FB01010F
:101BD0004FF4F87000EA111000EB0210C1F342114B
:101BE0001AE09A009B0FFEF749FB48F21F51C5F21D
:101BF000EB11A0FB01235A096FF0630302FB030002
:101C0000322303EB0010A0FB0101F02000EA511089
:101C100000EB0210C1F3431122680843906010BD2D
:101C20002DE9F0410446006800680840884202D16E
:101C30000020BDE8F0811D460E4690465F1C04E082
:101C4000206800683040B042F2D0002FF8D02DB1AB
:101C5000FFF716FAA0EB0800A842F1D9206850E877
:101C6000030F216820F4D07041E80302002AF5D167
:101C7000206850E8050F216820F0010041E80502C6
:101C8000002AF5D1202084F83D0084F83E00002091
:101C900084F83C000320BDE8F0810000FEE700006E
:101CA0004EF60C50CEF200000068C0F302207047E0
:101CB0004EF6145300F00F02CEF2000309011A444D
:101CC00000F16043B0F1FF3FC8BF03F564421170FB
:101CD000704700004EF60C51CEF200010A684FF634
:101CE000FF031A4060F30A2242F0806040F0FD706A
:101CF00008607047FFF7D8F9FFF7D4FEFFF706FE3C
:101D0000FFF7CEFDFFF738FE08A0FFF787FE42F28F
:101D1000C250C0F60000FFF781FE00BFFEF754FE80
:101D2000FEF732FDDC20FFF7C3F8F7E720000000E4
:101D300010B591EA030F48BF83F0004300F14283DE
:101D4000841A71EB030C05D2121943EB0C03001B30
:101D500061EB0C014FEA1154A4EB135CDFF81CE1BA
:101D60001EEA430F18BF9EEA445F00F0748021EA28
:101D7000045123EA0E0343F48013DCF1200E32D326
:101D800022FA0CFE10EB0E0023FA0CFE41EB0E01C2
:101D9000CCF1200E03FA0EFE10EB0E00CCF1200E5B
:101DA00051F10001B1F5801F32D201EB045112FA5A
:101DB0000EF2BDE8104058BF7047401C38BF5FEAC4
:101DC000420218BF7047002814BF20F0010041F103
:101DD00000014FEA410313F5001F38BF7047A1F11E
:101DE000C04100F0E1BA012A43EB0302ACF1200C40
:101DF000DCF11F0E32BF4FF0000E23FA0CF310EB94
:101E0000030041EB0451B4EB115FD0D0A1EB0451BE
:101E100001F58011490801EB04515FEA30000ED34F
:101E200050F1000038BF12FA0EFE08D1BDE8104094
:101E3000C9E7401C38BF5FEA4202CAD1C3E7BDE828
:101E400010404FEA410313F5001F38BF7047A1F15E
:101E5000C04100F0A9BA9EEA445F08D011EA5E0FC3
:101E6000BDE8104004BF01F0004100207047BDE80C
:101E7000104070B500F04AFA64FBBE3E0000E0FF7F
:101E80002DE9C04130B4DFF8A4C23CEA111418BFF8
:101E90003CEA131400F0ED801CEA111481EA0305FA
:101EA00044EAD57418BF1CEA131500F0C880A4EBEF
:101EB000050404F17F7404F500344FF0004545EA51
:101EC000C12145EAC32341EA505143EA52534FEA44
:101ED000C0204FEAC222994208BF904200F09D8084
:101EE0004FEA13650FF24416765D4FEA134506FB81
:101EF00005F7C7F1807706FB07F74FEAD737A7FB4F
:101F000003687642A7FB06CEC8F5803838BFA8F133
:101F1000010807FB08E6A6FB028C4FF0000EE6FB6B
:101F200003CEDCF1000CCEF1004E38BFAEF1010E55
:101F3000A6FB0C584FF00007E6FB0E87A1FB08C676
:101F4000A0FB07CE16EB0E064FF0000545F100058D
:101F5000E1FB076515F1E04E7EBFA4F580345FEA32
:101F600046066D4116F1800745F100054FEA172737
:101F700047EA05674FEA15254FEA0666A6F1DE46F1
:101F8000B6F1805F20D9384605EBC47124F0010C0E
:101F900001EB0C11BCF1FE6F02D8F0BCBDE8008172
:101FA00024425CBF01F5801E9EEAC47F02D4F0BCCF
:101FB000BDE80081244200F13980A1F1C041F0BCAC
:101FC000BDE8004100F0F0B94FEAD02040EA4150AE
:101FD0004FEAD1214FEAD22242EA43524FEAD323B9
:101FE000A7FB028607FB036605FB02661EEA0E0FCF
:101FF00058BFA6EB0056B6EB00564FEA520E4EEA1B
:10200000C37E18EB0E0E56EB530EBCD518EB020830
:102010005E417F1C55F10005B5E74FF480154FF088
:1020200000074FF000064FF00008ACE701F1C04197
:1020300001F000414FF00000F0BCBDE800810CEA67
:10204000131511EA0C1F00D00CE013EA0C1F00F06E
:1020500026804FF0000081EA030101F00041F0BC4E
:10206000BDE80081F0BCBDE8004181EA030100F059
:102070009BB9F0BCBDE8004170B500F047F900BF66
:10208000097EFC3E00F007B84FF0000081EA030132
:1020900001F00041704781EA030100F085B9F0BC0E
:1020A000BDE8004122494FF000007047FFFDFBF9F9
:1020B000F7F5F4F2F0EEEDEBE9E8E6E4E3E1E0DE7B
:1020C000DDDBDAD8D7D5D4D3D1D0CFCDCCCBCAC8ED
:1020D000C7C6C5C4C2C1C0BFBEBDBCBBBAB9B8B714
:1020E000B6B5B4B3B2B1B0AFAEADACABAAA9A8A807
:1020F000A7A6A5A4A3A3A2A1A09F9F9E9D9C9C9BD5
:102100009A9999989797969595949393929191907F
:102110008F8F8E8E8D8C8C8B8B8A89898888878710
:102120008685858484838382828181800000FF0785
:102130000000F87F4FEA41034FEA5353A3F5806351
:10214000D3F11E03C8BFD3F1210C0CDD4FF00042C8
:1021500042EAC12242EA505232FA03FC8CEAE17CA4
:10216000ACEBE1707047102BC4BF0020704703F543
:10217000787CBCF1FF3F04D06FF0004282EA21007E
:10218000704770B500F0C2F8499224800020704773
:10219000F2E7B0FA80F310FA03F10AD0C3F11D039D
:1021A00003F580634FEA03524FEA415002EBD1211D
:1021B00070474FF00000704770B5DFF848C11CEA67
:1021C000111E1EBF1CEA13159EEA0C0F95EA0C0F98
:1021D00000F06F8081EA03044EEAD47EAE4421EA27
:1021E0004C1123EA4C1341F4801143F48013AEF1F7
:1021F0007F7EA1FB024CA0FB0365361955EB0C0555
:10220000A1FB034C4CF10003A0FB021C16EB0C06D7
:10221000654153F10003094218BF46F0010613F46B
:10222000007F0BD14FEA03314FEA053041EA1551E7
:1022300040EA165034036FF003020AE04FEAC3216C
:102240004FEAC52041EA555140EA5650F4026FF07A
:10225000020202EB2E4201EB025585EACE710AD052
:102260005FEA440C18BF24F0004450F1000041F133
:10227000000120EAD47040F2FE7C624500D270BDBD
:10228000A84214BF4FF080444FF04044002E08BFD6
:102290000024BEF1806FA8BFA1F1C041BDE870402D
:1022A00080F2828001F1C04101F000414FF0000056
:1022B00070470CEA13159EEA0C0F18BF95EA0C0F35
:1022C00006D081EA030E4FF000000EF0004170BD11
:1022D00000F01CF88900013E00F007B800F009B8D2
:1022E0004FEA430C5FEA5C5C08D081EA030100F02E
:1022F0005BB84FEA410C5FEA5C5CF6D102494FF0F3
:10230000000070470000FF070000F87F0EF1020E8A
:102310002EF0030E5EF8046B364205D4012A43EB1F
:10232000030515F5001F12D8012841EB010C1CF51F
:10233000001F0CD80ED14FEAD17C0CEB4C0C0CF1E9
:10234000020C15F5001F08BF4CEBD37C04E04FF0E6
:10235000080C01E04FEAD37C0CEB4C0526FA05F69D
:1023600006F00706B6F1040C06D20EEB860CBDE8AB
:1023700070404CF0010C6047DFE80CF0090B0202E2
:102380004FF00041A1F500214FF0000070BD19464B
:102390001046012851EB010418BFD4F5001484BF86
:1023A000002001F0004170BD0808A0F500114FEABF
:1023B0003101704710B591EA030F48BF83F0004325
:1023C0003FF5BEAC841A71EB030C07D28CF0004CC5
:1023D000121943EB0C03001B61EB0C014FEA115483
:1023E000A4EB135CDFF8A4E11EEA430F18BF9EEADA
:1023F000445F00F0B48021EA045123EA6E035242A4
:10240000C3EB6E0338BF5B1EDCF1200E25D322FA2E
:102410000CFE10EB0E0043FA0CFE41EB0E01CCF16A
:10242000200E03FA0EFE10EB0E00CCF1200E51F13F
:10243000000129D401EB045112FA0EF2BDE810405C
:1024400058BF7047401C1CBFB2F1004F70470028B6
:102450000CBF491C20F00100704712EB020E43EB49
:10246000030218BF4FF0010E4EEA4202ACF1200CFD
:10247000DCF11E0E56D943FA0CFE10EB0E00CCF127
:102480001E0E51F1FF31D5D50EF1010E12FA0EFEDE
:10249000404141EB010101EB445C5FEA5C5C10D917
:1024A00001EB045110EBDE7038BFBEF1004FBDE808
:1024B000104018BF704700280CBF491C20F00100D5
:1024C000704734D24FEAD42C24F4006411F5001183
:1024D0001BD0B1FA81F20B3AA41AA41ED2F1200348
:1024E000914030FA03F31943904001EBCC7101EBBA
:1024F0000451002CBDE81040A8BF704701F1C04155
:1025000001F000414FF000007047B0FA80F310FA7C
:1025100003F102D1BDE810407047E41A173C4805AA
:10252000C90AE2E701EB0451BDE8104070474910C9
:102530004FEA300001EB0451BDE8104002E04FF0DB
:10254000000170474A0008BF0042F8D0B2F5001FF2
:1025500028BF704701F000414FF0000070479EEA2D
:10256000445F07D011EA5E0FBDE8104004BF0021B0
:1025700000207047BDE8104070B5FFF7C7FE00BFF0
:1025800040DFF63E104683F0004170470000E0FF58
:10259000F1EE100A4FF6FF71C0F2C03120EA0100DF
:1025A00040F04070E1EE100A7047000000000000AB
:1025B00000000102030406070809000000000102F0
:1025C00003040A0D00000000E825000800000020B8
:1025D00050000000D00100083826000850000020FC
:1025E000880A0000EC0100080024F4000600000046
:1025F0005B0000004F000000770000006600000054
:102600006D0000007D0000007C000000070000005D
:102610007F0000006F0000005800000076000000FE
:102620003F0000005C0000005E00000001000000B0
:08263000100000000000000092
:040000050800019559
:00000001FF
